:100000000C94BB000C94D8000C94FC000C94D80009
:100010000C94D8000C94D8000C94D8000C94D80000
:100020000C94D8000C94D8000C94D8000C941504AF
:100030000C94D8000C94D8000C94D8000C94D800E0
:100040000C94D8000C94D8000C94D8000C94D800D0
:100050000C94D8000C94D8000C94D8000C94D800C0
:100060000C94D8000C94D8000C94D8000C94D800B0
:100070000C94D8000C94D8000C94D80000407A104E
:10008000F35A00A0724E18090010A5D4E80000E849
:100090007648170000E40B54020000CA9A3B0000A7
:1000A00000E1F505000080969800000040420F0036
:1000B0000000A08601000000102700000000E803F7
:1000C000000000006400000000000A0000000000C2
:1000D0000100000000002C76D888DC674F0823DF81
:1000E000C1DFAE59E1B1B796E5E3E453C63AE65154
:1000F000997696E8E6C28426EB898C9B62ED407C7B
:100100006FFCEFBC9C9F40F2BAA56FA5F490055A16
:100110002AF75C936B6CF9676DC11BFCE0E40D473B
:10012000FEF520E6B500D0ED902E0300943577055E
:100130000080841E080000204E0A000000C80C3316
:100140003333330F986E12831141EF8D2114893BA5
:10015000E65516CFFEE6DB18D1844B381BF77C1D25
:10016000901DA4BBE424203284725E228100C9F178
:1001700024ECA1E53D2711241FBECFEFD8E0DEBF60
:10018000CDBF11E0A0E0B1E0ECE4FBE202C00590DD
:100190000D92A436B107D9F721E0A4E6B1E001C081
:1001A0001D92A037B207E1F70E94730D0C94A415BD
:1001B0000C940000F89481E08093640188EF81B989
:1001C0008FEF87B997EB9AB984B9E99AE9E6F0E03D
:1001D000808189608083789408959C0190E080E01C
:1001E0008217930744F4EFECF7E03197F1F700C082
:1001F00000000196F5CF08951F920F920FB60F924F
:1002000011242F933F934F935F936F937F938F931B
:100210009F93AF93BF93EF93FF938EE190E00E9483
:10022000ED0010926401E19AFF91EF91BF91AF91BF
:100230009F918F917F916F915F914F913F912F91FE
:100240000F900FBE0F901F90189508950E94C8033D
:100250000E94010418B80895CF93DF93CDB7DEB79D
:100260002A970FB6F894DEBF0FBECDBF8D839E8355
:1002700081E085B92AE12A95F1F700C015B8AD8172
:10028000BE8153961C921E925297009BFECFED8129
:10029000FE8182899389009B1FC08132FCE19F0708
:1002A00088F0AD81BE811D921D921D921C92139704
:1002B00000982A960FB6F894DEBF0FBECDBFDF912F
:1002C000CF9108950196ED81FE81938B828BF2E0B0
:1002D000FA95F1F700C0DBCF9C01990F440B550B49
:1002E00029833A834B835C83CA01B9010E949D0E26
:1002F00020E030E047ED54E469837A838B839C836C
:1003000069817A818B819C810E94290E6F83788715
:1003100089879A87AD81BE816D937D938D939C93E0
:100320001397C6CFCF93DF93CDB7DEB72A970FB61B
:10033000F894DEBF0FBECDBF8D839E8381E085B96B
:100340002AE12A95F1F700C015B8AD81BE81539618
:100350001C921E925297019BFECFED81FE818289F5
:100360009389019B20C08132FCE19F0790F0AD8111
:10037000BE8118961D921D921D921C921B9700988B
:100380002A960FB6F894DEBF0FBECDBFDF91CF9196
:1003900008950196ED81FE81938B828BF2E0FA95B0
:1003A000F1F700C0DACF9C01990F440B550B29835C
:1003B0003A834B835C83CA01B9010E949D0E20E001
:1003C00030E047ED54E469837A838B839C836981B1
:1003D0007A818B819C810E94290E6F83788789871F
:1003E0009A87AD81BE8118966D937D938D939C9372
:1003F0001B97C5CFCF93DF93CDB7DEB72A970FB644
:10040000F894DEBF0FBECDBF8D839E8381E085B99A
:100410002AE12A95F1F700C015B8AD81BE81539647
:100420001C921E925297029BFECFED81FE81828923
:100430009389029B20C08132FCE19F0790F0AD813F
:10044000BE8114961D921D921D921C9217970098C2
:100450002A960FB6F894DEBF0FBECDBFDF91CF91C5
:1004600008950196ED81FE81938B828BF2E0FA95DF
:10047000F1F700C0DACF9C01990F440B550B29838B
:100480003A834B835C83CA01B9010E949D0E20E030
:1004900030E047ED54E469837A838B839C836981E0
:1004A0007A818B819C810E94290E6F83788789874E
:1004B0009A87AD81BE8114966D937D938D939C93A5
:1004C0001797C5CFCF93DF93D82FC92F0E942C0148
:1004D0002FE386E991E0215080409040E1F700C091
:1004E00000008D2F9C2F0E9492012FE386E991E05E
:1004F000215080409040E1F700C000008D2F9C2FDC
:100500000E94FA012FE386E991E02150804090405B
:10051000E1F700C00000DF91CF910895CF93DF9302
:1005200000D000D000D0CDB7DEB78D839E83AD81E3
:10053000BE818D919D910D90BC91A02D89839A8350
:10054000AB83BC8320E030E040E85FE3BC01CD0139
:100550000E94240E87FF07C084E191E0ED81FE81B7
:100560009587848714C020E030E040E450E469813E
:100570007A818B819C810E944D0F87FD11C089E19A
:1005800091E0AD81BE811D969C938E931C9726961B
:100590000FB6F894DEBF0FBECDBFDF91CF910895A7
:1005A0008CE191E0DBCFCF93DF9300D000D000D07F
:1005B000CDB7DEB78D839E83AD81BE8118968D91B8
:1005C0009D910D90BC91A02D89839A83AB83BC83B0
:1005D00020E030E040E85FE3BC01CD010E94240E42
:1005E00087FF07C084E191E0ED81FE8197878687D0
:1005F00014C020E030E040E450E469817A818B81CE
:100600009C810E944D0F87FD11C089E191E0AD8171
:10061000BE811F969C938E931E9726960FB6F894D4
:10062000DEBF0FBECDBFDF91CF9108958CE191E089
:10063000DBCFCF93DF9300D000D000D0CDB7DEB7B3
:100640008D839E83AD81BE8114968D919D910D9079
:10065000BC91A02D89839A83AB83BC8320E030E0DA
:1006600040E85FE3BC01CD010E94240E87FF07C074
:1006700084E191E0ED81FE81918B808B14C020E0BC
:1006800030E040E450E469817A818B819C810E9452
:100690004D0F87FD11C089E191E0AD81BE8151967A
:1006A0009C938E93509726960FB6F894DEBF0FBE9C
:1006B000CDBFDF91CF9108958CE191E0DBCF6F92B8
:1006C0007F928F929F92AF92BF92CF92DF92EF92E2
:1006D000FF920F931F93CF93DF93EC013B010E9496
:1006E0008E02CE010E94D302CE010E9419038E8495
:1006F0009F84AC84BD84CC80DD80EE80FF80088543
:1007000019852A853B85488159816A817B81898940
:100710008F9388898F93C3010E94B70A0F900F901F
:10072000DF91CF911F910F91FF90EF90DF90CF90CD
:10073000BF90AF909F908F907F906F900895FC0135
:10074000848595850895FC01868597850895FC012B
:10075000808991890895FC0160830895FC0180815E
:10076000882319F0813021F008955898599A0895F6
:100770005A985F9A0895FC018081882319F081308E
:1007800021F008955998589A08955F985A9A0895B3
:10079000589859985A985F9808950895FC01808157
:1007A0004FEF849FC001112424E630E0B9010E947C
:1007B000100E70938B0060938A008181849FC0012A
:1007C0001124B9010E94100E709389006093880073
:1007D000E0E8F0E08081816A8083E1E8F0E08081F8
:1007E00082608083109282000895FC0180810895C8
:1007F000FC0181810895FC0160830895FC016183FF
:100800000895109280005C985D9808959C0190E096
:1008100080E08217930744F4EFECF7E03197F1F7AB
:1008200000C000000196F5CF08951F920F920FB6F9
:100830000F9211242F933F934F935F936F937F9366
:100840008F939F93AF93BF93EF93FF93CF93DF93D8
:1008500000D0CDB7DEB74091680160916901CE014B
:1008600001960E941F0D0F900F90DF91CF91FF9185
:10087000EF91BF91AF919F918F917F916F915F9118
:100880004F913F912F910F900FBE0F901F90189591
:100890000895FB01BA01A90181E0E931F80719F5D2
:1008A00080E091E06931790779F481E02C513140A1
:1008B00009F080E029E131E02C51314029F491E048
:1008C0004931590709F482E091E06431790759F51B
:1008D00091E04431590709F483E029E131E02451E2
:1008E000314009F516C081E0EC31F80739F591E0A7
:1008F0006931790749F52951314031F582E091E0BC
:10090000E431F90781F401C080E091E064317907B6
:1009100051F491E04931590709F484E091E0443100
:10092000590709F485E0EC51F14081F469517140B7
:1009300069F44C51514051F486E0089581E0E4316E
:10094000F80711F380E0089580E0D9CF08959B0166
:1009500090E080E08217930744F4EFECF7E03197E2
:10096000F1F700C000000196F5CF08951092B20093
:100970006093B300E0EBF0E0808182648083E1EB80
:10098000F0E0808187608083E0E7F0E08081816033
:10099000808378940895CF92DF92EF92FF920F9325
:1009A0001F93CF93DF936C01D62FC72F7A01890154
:1009B0006AE58D2F972F0E94FB036AE58D2F9C2FF0
:1009C0000E94FE0361E0C6010E94B6048D2F9C2F99
:1009D0000E94CE038D2F9C2F0E94F5038093690106
:1009E0008D2F9C2F0E94F80380936801C7010E94FD
:1009F000BB03C8010E94BB038D2F9C2F0E94F503EF
:100A00008533C8F08D2F9C2F0E94F5036FEF680F80
:100A10008D2F9C2F0E94FB038D2F9C2F0E94CE03B5
:100A20008D2F9C2F0E94F5038093690184E690E04E
:100A30000E940604E1CF88EE93E00E9406048D2F09
:100A40009C2F0E94F5038A35B8F48D2F9C2F0E94AD
:100A5000F50361E0680F8D2F9C2F0E94FB038D2F03
:100A60009C2F0E94CE038D2F9C2F0E94F503809314
:100A7000690184E690E0E1CF80ED97E00E940604F2
:100A8000809170008E7F80937000DF91CF911F91D5
:100A90000F91FF90EF90DF90CF900895CF92DF926B
:100AA000EF92FF920F931F93CF93DF936C01D62F9A
:100AB000C72F7A0189016AE58D2F972F0E94FB03CA
:100AC0006AE58D2F9C2F0E94FE0361E0C6010E9403
:100AD000B6048D2F9C2F0E94CE038D2F9C2F0E9439
:100AE000F503809369018D2F9C2F0E94F80380935A
:100AF0006801C7010E94BB03C8010E94BB038D2F80
:100B00009C2F0E94F8038533C8F08D2F9C2F0E94E4
:100B1000F8036FEF680F8D2F9C2F0E94FE038D2F1F
:100B20009C2F0E94CE038D2F9C2F0E94F803809350
:100B3000680184E690E00E940604E1CF88EE93E02D
:100B40000E9406048D2F9C2F0E94F8038A35B8F46A
:100B50008D2F9C2F0E94F80361E0680F8D2F9C2F32
:100B60000E94FE038D2F9C2F0E94CE038D2F9C2F61
:100B70000E94F8038093680184E690E0E1CF80ED65
:100B800097E00E940604809170008E7F8093700031
:100B9000DF91CF911F910F91FF90EF90DF90CF9059
:100BA0000895CF92DF92EF92FF920F931F93CF930E
:100BB000DF936C01D62FC72F7A01890162E38D2F55
:100BC000972F0E94FB0362E38D2F9C2F0E94FE0350
:100BD00061E0C6010E94B6048D2F9C2F0E94CE03B7
:100BE0008D2F9C2F0E94F503809369018D2F9C2FE0
:100BF0000E94F80380936801C7010E94AE03C801F8
:100C00000E94BB0388EE93E00E94060462E48D2FED
:100C10009C2F0E94FB0362E48D2F9C2F0E94FE03F9
:100C20008D2F9C2F0E94CE038D2F9C2F0E94F503A9
:100C3000809369018D2F9C2F0E94F8038093680197
:100C4000C7010E94BB0380ED97E00E94060462E3A7
:100C50008D2F9C2F0E94FB0362E38D2F9C2F0E94FF
:100C6000FE038D2F9C2F0E94CE038D2F9C2F0E9460
:100C7000F503809369018D2F9C2F0E94F8038093C8
:100C80006801C8010E94AE0388EE93E00E9406044A
:100C90006EE48D2F9C2F0E94FB036EE48D2F9C2F02
:100CA0000E94FE038D2F9C2F0E94CE038D2F9C2F20
:100CB0000E94F503809369018D2F9C2F0E94F803F9
:100CC00080936801C8010E94BB0380ED97E00E94F9
:100CD0000604E0E7F0E080818E7F8083DF91CF9192
:100CE0001F910F91FF90EF90DF90CF900895CF92DA
:100CF000DF92EF92FF920F931F93CF93DF936C01DC
:100D0000D62FC72F8A01790162E38D2F972F0E947A
:100D1000FB0362E38D2F9C2F0E94FE0361E0C6015E
:100D20000E94B6048D2F9C2F0E94CE038D2F9C2FE6
:100D30000E94F503809369018D2F9C2F0E94F80378
:100D400080936801C8010E94BB03C7010E94AE03E3
:100D500088EE93E00E94060462E48D2F9C2F0E948F
:100D6000FB0362E48D2F9C2F0E94FE038D2F9C2F8E
:100D70000E94CE038D2F9C2F0E94F5038093690162
:100D80008D2F9C2F0E94F80380936801C7010E9459
:100D9000BB0380ED97E00E94060462E38D2F9C2F39
:100DA0000E94FB0362E38D2F9C2F0E94FE038D2F78
:100DB0009C2F0E94CE038D2F9C2F0E94F5038093C1
:100DC00069018D2F9C2F0E94F80380936801C80150
:100DD0000E94AE0388EE93E00E9406046EE48D2F1D
:100DE0009C2F0E94FB036EE48D2F9C2F0E94FE031C
:100DF0008D2F9C2F0E94CE038D2F9C2F0E94F503D8
:100E0000809369018D2F9C2F0E94F80380936801C5
:100E1000C8010E94BB0380ED97E00E940604E0E752
:100E2000F0E080818E7F8083DF91CF911F910F91C1
:100E3000FF90EF90DF90CF900895CF92DF92EF92E6
:100E4000FF920F931F93CF93DF936C01D62FC72F81
:100E50007A01890162E38D2F972F0E94FB0362E3E1
:100E60008D2F9C2F0E94FE0361E0C6010E94B604F4
:100E70008D2F9C2F0E94CE038D2F9C2F0E94F50357
:100E8000809369018D2F9C2F0E94F8038093680145
:100E9000C7010E94BB03C8010E94AE0380ED97E02A
:100EA0000E94060460E08D2F9C2F0E94FB0360E0EF
:100EB0008D2F9C2F0E94FE038D2F9C2F0E94CE030E
:100EC0008D2F9C2F0E94F503809369018D2F9C2FFD
:100ED0000E94F80380936801C7010E94BB03C80108
:100EE0000E94BB038D2F9C2F0E94F5038F3378F552
:100EF0008D2F9C2F0E94F8038F3348F58D2F9C2F48
:100F00000E94F50363E0680F8D2F9C2F0E94FB0366
:100F10008D2F9C2F0E94F80363E0680F8D2F9C2F6C
:100F20000E94FE038D2F9C2F0E94CE038D2F9C2F9D
:100F30000E94F503809369018D2F9C2F0E94F80376
:100F4000809368018DE790E00E940604CBCF80ED8E
:100F500097E00E940604809170008E7F809370005D
:100F6000DF91CF911F910F91FF90EF90DF90CF9085
:100F70000895CF92DF92EF92FF920F931F93CF933A
:100F8000DF936C01D62FC72F7A0189016AE58D2F77
:100F9000972F0E94FB036AE58D2F9C2F0E94FE0372
:100FA00061E0C6010E94B6048D2F9C2F0E94CE03E3
:100FB0008D2F9C2F0E94F503809369018D2F9C2F0C
:100FC0000E94F80380936801C7010E94AE03C80124
:100FD0000E94AE038D2F9C2F0E94F5038A3278F178
:100FE0008D2F9C2F0E94F8038A3248F18D2F9C2F61
:100FF0000E94F50369EF680F8D2F9C2F0E94FB0361
:101000008D2F9C2F0E94F80369EF680F8D2F9C2F66
:101010000E94FE038D2F9C2F0E94CE038D2F9C2FAC
:101020000E94F503809369018D2F9C2F0E94F80385
:101030008093680184EF91E00E940604CBCF80ED9D
:1010400097E00E940604809170008E7F809370006C
:10105000DF91CF911F910F91FF90EF90DF90CF9094
:1010600008950F931F93E62FBA01A90198015C9A86
:101070005D9AE430F1F048F4E23099F0E330A9F001
:10108000E13059F01F910F910895E530B1F0E6304D
:10109000C9F71F910F910C94B9071F910F910C94F0
:1010A000CB041F910F910C944E051F910F910C943E
:1010B000D1051F910F910C9477061F910F910C94FD
:1010C0001D07CF93DF93EC01CB01BA01188219827F
:1010D0001A821B824C837D83188619860E945B0CC2
:1010E0004C815D8160E081E00E94140C80E190E021
:1010F0000E94700F9F838E83DF91CF910895FC0132
:10110000868197810C940C101F93CF93DF93EC0191
:10111000162F2C813D81462F6B8181E00E941C0C93
:101120001A83DF91CF911F9108951F93CF93DF937F
:10113000EC01162F2C813D814A8181E00E941C0C1C
:101140001B83DF91CF911F910895FC01862F6032A0
:1011500048F4618364817581803110F40C944E0CE5
:10116000805DFCCF0895CF93DF93EC018C819D814E
:101170000E94080C18826981CE01DF91CF910C94F6
:10118000A5086F927F928F929F92AF92BF92CF925B
:10119000DF92EF92FF920F931F93CF93DF93EC01B7
:1011A0008B01F42EE22ECB010E94240D6C017A807B
:1011B0008B8060E0CE010E94840860E0CE010E9436
:1011C0009508EE2019F0CE010E94B3082FE12F15EB
:1011D00008F45CC08F2D90E0A601552720E230E096
:1011E000281B390BC216130611F00CF04FC09C2CB3
:1011F0006C817D81EFE0EF1548F1840F951FEC2C99
:1012000040971CF080E1E82EEF188F2D0E944E0CC5
:10121000602E58016C817D818A2D86198E1530F4DF
:10122000F50181915F010E94550CF4CF80E40E948A
:101230004E0C0E0D111DE914D8F46C817D81F8015E
:1012400081918F010E94550CE394F5CF80E38F0DBF
:101250000E944E0CE02E58018A2D8E19891540F4FB
:101260006C817D81F50181915F010E94550CF4CF65
:101270006981CE010E94A508672DCE010E948408D5
:10128000682DCE010E949508FC0CF882DF91CF9169
:101290001F910F91FF90EF90DF90CF90BF90AF9094
:1012A0009F908F907F906F9008956115710511F058
:1012B0000C94C1080895FC0120E040810C9455096C
:1012C0000F931F93CF93DF9300D0CDB7DEB78C0180
:1012D0001A826983BE016F5F7F4F0E945B09C8015C
:1012E0000F900F90DF91CF911F910F910895EF9282
:1012F000FF920F931F93CF93DF938C01862FEA0108
:101300006830B8F42097A9F0F80164817581880FDE
:10131000880F880F0E94460C7E01F8E0EF0EF11C4A
:10132000F8016481758189910E94550CCE15DF0505
:10133000B9F7DF91CF911F910F91FF90EF90089532
:10134000CF93DF93D82FC92FCB01892B21F08D2F7D
:101350009C2F0E945B098D2F9C2FDF91CF910895C8
:10136000CF93DF93EC017F936F9381E291E09F93A2
:101370008F938F818F938E818F930E9495106E81B2
:101380007F81CE010E94A0090F900F900F900F90C7
:101390000F900F90CE01DF91CF910895CF93DF93FF
:1013A000EC017F936F9384E291E09F938F938F8101
:1013B0008F938E818F930E9495106E817F81CE01D5
:1013C0000E94A0090F900F900F900F900F900F9018
:1013D000CE01DF91CF910895CF93DF93EC011F925F
:1013E0006F9387E291E09F938F938F818F938E818C
:1013F0008F930E9495106E817F81CE010E94A0097B
:101400000F900F900F900F900F900F90CE01DF91E3
:10141000CF9108950F931F93CF93DF93EC018B012E
:101420006115710561F0288581E028274985CE0185
:101430000E9455098885882311F018861986C801ED
:10144000DF91CF911F910F910895FC01603218F444
:10145000618781E08087CF0108950F931F93CF9319
:10146000DF93EC018881082F681708F4062F801B92
:10147000888310E0101731F060E2CE010E9460090D
:101480001F5FF8CF8881811B8883DF91CF911F91E7
:101490000F910895CF92DF92EF92FF920F931F93D7
:1014A000CF93DF93D82FC92F6A01790121E06931E9
:1014B0007207F1F520E041E169E171E08D2F9C2F89
:1014C0000E94C10820E089E1C81681E0D806A9F58C
:1014D00047E169E171E08D2F9C2F0E94C10820E057
:1014E00046E0B8018D2F9C2F0E94550920E049E06D
:1014F0006AE271E08D2F9C2F0E94C10829E1E2165B
:1015000021E0F20609F589E191E00E94240D4FE106
:10151000481B20E069E171E08D2F9C2FDF91CF9176
:101520001F910F91FF90EF90DF90CF900C94C10826
:1015300020E040E10E945509C5CF46E1B6018D2F5C
:101540009C2F0E945509CBCFC7010E94240D40E279
:10155000481B20E0B7018D2F9C2FDF91CF911F9169
:101560000F91FF90EF90DF90CF900C9455092F9240
:101570003F924F925F926F927F928F929F92AF9223
:10158000BF92CF92DF92EF92FF920F931F93CF9370
:10159000DF93CDB7DEB767970FB6F894DEBF0FBE07
:1015A000CDBF3C011A012B010C8B1D8B2E8B3F8B69
:1015B0000E94B30806E011E021E043E0288A398A5E
:1015C0004A8A5B8A688979898A899B890E94520F35
:1015D0009F938F932E018BE0480E511C5F924F9288
:1015E0000E94951021E043E09C89988B8D89898B1E
:1015F0009E899A8B8F898B8B688979898A899B8947
:101600000E94520F9F938F931E0196E0290E311C6A
:101610003F922F920E94951021E043E0C88AD98A18
:10162000EA8AFB8A688979898A899B890E94520F94
:101630009F938F938E010F5F1F4F1F930F930E94F5
:10164000951020E040E0B201C3010E94C108C20130
:101650000E94240D482F20E06AE271E0C3010E943D
:10166000C108C8010E94240D4FE0481B20E0B801CA
:10167000C3010E94C108C8010E94240D42E1481B19
:1016800020E06AE271E0C3010E94C10881012CA53B
:101690003DA5A401B501C3010E944A0A0FB6F89402
:1016A000DEBF0FBECDBF67960FB6F894DEBF0FBE8C
:1016B000CDBFDF91CF911F910F91FF90EF90DF9001
:1016C000CF90BF90AF909F908F907F906F905F90E2
:1016D0004F903F902F900895EF92FF920F931F939A
:1016E000CF93DF93CDB7DEB764970FB6F894DEBF24
:1016F0000FBECDBF8C01F62E0E94B3081F92FF9241
:101700008CE291E09F938F93CE0101967C019F9391
:101710008F930E9495106FE271E0C8010E945B09EF
:10172000B701C8010E945B090F900F900F900F90B6
:101730000F900F9064960FB6F894DEBF0FBECDBF2A
:10174000DF91CF911F910F91FF90EF900895CF936C
:10175000DF93D82FC92F0E94B30820E040E06AE34E
:1017600071E08D2F9C2F0E94C10820E040E166E4CB
:1017700071E08D2F9C2FDF91CF910C94C108FC015B
:1017800080818062808384E08A95F1F780818F7DFB
:1017900080830895DF92EF92FF920F931F93CF9370
:1017A000DF93D42EE901062F10E090E8899F7001A5
:1017B00011248881817288838881980194E035950D
:1017C00027959A95E1F7220F331F2E29282B28837E
:1017D000CE010E94BF0B8881817288838881000FAF
:1017E000111F0E710E29082B0883CE010E94BF0B1A
:1017F00080E09AE19A95F1F700C08F5FD812F9CF97
:10180000DF91CF911F910F91FF90EF90DF9008959E
:101810009C0144EA61E080E00C94CA0B9C0144EA1C
:1018200062E080E00C94CA0B9A01880F682B646018
:1018300044E080E00C94CA0B54E0859FC001112461
:10184000482B660F642B686044E080E00C94CA0B60
:101850009A0148E0849FC001112444E0649FB001D4
:101860001124682B606144E080E00C94CA0B9A015B
:1018700040E1849FC001112448E0649FB00111241D
:10188000682B606244E080E00C94CA0B9B018F7768
:10189000682F606444E080E00C94CA0B9B01682FC1
:1018A000606844E080E00C94CA0B9B0144E0682F20
:1018B00081E00C94CA0BCF93DF93FC01EB018FE224
:1018C00095E70197F1F700C0000080818172808365
:1018D00080818FEF80838881817288838881866090
:1018E000888388818E7F8883CB010E94BF0B87E02D
:1018F00090E20197F1F700C00000CE010E94BF0BFB
:1019000087EC90E00197F1F700C00000CE010E9443
:10191000BF0B9AE69A95F1F700C08881817288839F
:10192000888184608883CE010E94BF0B8AE68A95F5
:10193000F1F700C09E0144E06CE280E00E94CA0B17
:101940009E0140E060E080E00E941C0CCE010E94FD
:10195000080CAE0160E081E00E94140C9E0140E0A2
:1019600060E081E0DF91CF910C941C0C6A3030F480
:10197000E62FF0E0E65FFE4F8081089582E0089553
:10198000FC0120916B012D5F81E090E001C0880F88
:101990002A95EAF7809582B980916B0181110DC07B
:1019A0008081843608F047C06AE00E94F00DA82FBD
:1019B000B0E0A65FBE4F8C9188B980916B018130F9
:1019C00051F480816AE00E94F00DA92FB0E0A65F7B
:1019D000BE4F8C9188B980916B01823009F488B92F
:1019E00080916B01833061F48181843630F56AE047
:1019F0000E94F00DA82FB0E0A65FBE4F8C9188B971
:101A000080916B01843051F481816AE00E94F00D75
:101A1000E92FF0E0E65FFE4F808188B980916B018D
:101A20008F5F80936B0180916B0165E00E94F00DE8
:101A300090936B01089582E0BFCF82E0E0CFFC017C
:101A4000608341830C94C00C9C0190E080E001967F
:101A5000F901E80FF91F40814111F9CF0895EF9284
:101A6000FF920F931F93CF93DF93EC01FB011F862F
:101A7000309701F17C018FE0E80EF11C2EE0042F7D
:101A800010E0CF01B8010E94FC0DDC01AE5ABE4F40
:101A90008C91D7018E937D012150CF01FB018017DE
:101AA000910710F02111EDCF822F90E001968C0F5D
:101AB0009D1F03C00E9620E32E87DF91CF911F91CB
:101AC0000F91FF90EF9008959C0190E080E08217C5
:101AD000930741F0EFECF7E03197F1F700C0000019
:101AE0000196F5CF0895CDB7DEB7A3970FB6F8945A
:101AF000DEBF0FBECDBFCE0101960E9425010E9420
:101B0000DA0045E250E064E270E0CE0145960E94C2
:101B10006108CE0183960E94480460E0CE0182965F
:101B20000E94AB0361E0CE0181960E94AB03CE011F
:101B30004F960E94CD03DD24D394809164018823C5
:101B4000A1F0CE0101960E942601CE0101960E94CD
:101B50006202BE016B5E7F4FCE0101960E945F0361
:101B60008AEF90E00E94ED00E8CFCE0101960E943E
:101B7000A703E82E092FCE0101960E94A303182F78
:101B8000F92ECE0101960E949F03BC012E2D302F0D
:101B9000412F5F2DCE0183960E944904F82E8823A1
:101BA000B1F0682FCE0145960E946C0B8E010F5D3F
:101BB0001F4F9E012E5D3F4FAE01415E5F4F6F2D67
:101BC000CE0183960E943108D0926401B6CFCE0137
:101BD00045960E94A70B80ED97E00E94ED00F4CFA0
:101BE000991B79E004C0991F961708F0961B881F6F
:101BF0007A95C9F780950895AA1BBB1B51E107C0D0
:101C0000AA1FBB1FA617B70710F0A61BB70B881F8C
:101C1000991F5A95A9F780959095BC01CD0108951B
:101C200097FB072E16F4009407D077FD09D00E9489
:101C3000FC0D07FC05D03EF4909581959F4F0895CB
:101C4000709561957F4F08950E94D80E08F481E049
:101C500008950E943D0E0C94130F0E940C0F58F033
:101C60000E94050F40F029F45F3F29F00C94FC0E10
:101C700051110C94470F0C94020F0E94240F68F32B
:101C80009923B1F3552391F3951B550BBB27AA2735
:101C900062177307840738F09F5F5F4F220F331F6F
:101CA000441FAA1FA9F335D00E2E3AF0E0E832D037
:101CB00091505040E695001CCAF72BD0FE2F29D03A
:101CC000660F771F881FBB1F261737074807AB070C
:101CD000B0E809F0BB0B802DBF01FF2793585F4F81
:101CE0003AF09E3F510578F00C94FC0E0C94470F8F
:101CF0005F3FE4F3983ED4F3869577956795B79563
:101D0000F7959F5FC9F7880F911D9695879597F96D
:101D10000895E1E0660F771F881FBB1F62177307E6
:101D20008407BA0720F0621B730B840BBA0BEE1FFB
:101D300088F7E0950895E89409C097FB3EF49095E4
:101D40008095709561957F4F8F4F9F4F9923A9F094
:101D5000F92F96E9BB279395F69587957795679523
:101D6000B795F111F8CFFAF4BB0F11F460FF1BC067
:101D70006F5F7F4F8F4F9F4F16C0882311F096E9FA
:101D800011C0772321F09EE8872F762F05C06623A8
:101D900071F096E8862F70E060E02AF09A95660F61
:101DA000771F881FDAF7880F9695879597F908951A
:101DB000990F0008550FAA0BE0E8FEEF161617065C
:101DC000E807F907C0F012161306E407F50798F0C4
:101DD000621B730B840B950B39F40A2661F0232BDD
:101DE000242B252B21F408950A2609F4A140A69559
:101DF0008FEF811D811D089597F99F6780E870E03E
:101E000060E008959FEF80EC089500240A94161670
:101E1000170618060906089500240A9412161306D8
:101E2000140605060895092E0394000C11F4882366
:101E300052F0BB0F40F4BF2B11F460FF04C06F5F82
:101E40007F4F8F4F9F4F089557FD9058440F551F58
:101E500059F05F3F71F04795880F97FB991F61F02C
:101E60009F3F79F087950895121613061406551FA3
:101E7000F2CF4695F1DF08C0161617061806991F0F
:101E8000F1CF86957105610508940895E894BB2704
:101E900066277727CB0197F908950E94D80E08F49A
:101EA0008FEF0895EF920F931F93CF93DF93E80185
:101EB00034E047FD34E1042E000C550B57FF03C0FE
:101EC000519541955109E32E022F242FAE010E9416
:101ED0009212CE01DF91CF911F910F91EF90089553
:101EE0000F931F93CF93DF938230910510F482E01C
:101EF00090E0E0916E01F0916F0130E020E0B0E001
:101F0000A0E0309799F42115310509F44AC0281B47
:101F1000390B24303105D8F58A819B816115710513
:101F200089F1FB0193838283FE0111C040815181BD
:101F30000281138148175907E0F04817590799F4AF
:101F4000109761F012960C93129713961C93329689
:101F5000CF01DF91CF911F910F91089500936E01F2
:101F600010936F01F4CF2115310551F0421753073B
:101F700038F0A901DB019A01BD01DF01F801C1CFF1
:101F8000EF01F9CF90936F0180936E01CDCFFE01E9
:101F9000E20FF31F819391932250310939832883F3
:101FA000D7CF20916C0130916D01232B41F420910A
:101FB00002013091030130936D0120936C01209157
:101FC0000001309101012115310541F42DB73EB7D3
:101FD0004091040150910501241B350BE0916C01E7
:101FE000F0916D01E217F307A0F42E1B3F0B2817A9
:101FF000390778F0AC014E5F5F4F2417350748F082
:102000004E0F5F1F50936D0140936C01819391932C
:102010009FCFF0E0E0E09CCFCF93DF930097E9F013
:10202000FC01329713821282A0916E01B0916F0170
:10203000ED0130E020E01097A1F420813181820F82
:10204000931F20916C0130916D012817390709F019
:1020500061C0F0936D01E0936C01DF91CF91089521
:10206000EA01CE17DF07E8F54A815B819E01411541
:102070005105B1F7E901FB83EA8349915991C40FF6
:10208000D51FEC17FD0761F4808191810296840FC2
:10209000951FE90199838883828193819B838A8339
:1020A000F0E0E0E012968D919C9113970097B9F5BE
:1020B0002D913C911197CD010296820F931F209193
:1020C0006C0130916D012817390739F6309751F5B9
:1020D00010926F0110926E01B0936D01A0936C018C
:1020E000BCCFD383C28340815181840F951FC81711
:1020F000D90761F44E5F5F4F88819981480F591F5E
:10210000518340838A819B8193838283211531058A
:1021100009F0B0CFF0936F01E0936E019ECFFD0107
:10212000DC01C0CF13821282D7CFAEE0B0E0EBE982
:10213000F0E10C947B150D891E8986E08C831A834F
:1021400009838FEF9FE79E838D83AE01475E5F4FCC
:102150006F89788DCE0101960E94B8102F81388545
:10216000020F131FF80110822E96E4E00C949715CD
:10217000ABE0B0E0EEEBF0E10C946D157C013B01BF
:102180008A01FC0117821682838181FFC8C1CE01BA
:1021900001965C01F7019381F30193FD859193FF13
:1021A00081913F01882309F453C1853239F493FDAD
:1021B000859193FF81913F01853229F4B70190E029
:1021C0000E94DF14E7CF912C212C312CFFE1F31575
:1021D00038F08B3211F190F4803209F1833229F119
:1021E00037FC3CC020ED280F2A3050F536FE20C0C9
:1021F0008AE0989E200D1124922E06C08D3291F017
:10220000803371F7689430F8F30193FD859193FF63
:1022100081913F018111DACF21C0689431F868942F
:1022200032F8F2CF689433F8EFCF689434F8ECCFFB
:10223000EAE02E9E200D1124222E689435F8E4CF7A
:102240008E3229F436FC04C1689436F8DDCF8C3622
:1022500019F4689437F8D8CF8836B1F2982F9F7D5B
:1022600095549330E0F08336A1F18337C1F1833583
:1022700009F063C02801F2E04F0E511CF801C08044
:10228000D180692D70E036FC02C06FEF7FEFC60190
:102290000E94C9144C01689437F882010AC00C5F8F
:1022A0001F4FFFE3F98388248394912C6501E89400
:1022B00037F833FE2DC0522C8114910471F555204E
:1022C00009F468CFB70180E290E00E94DF145A94CD
:1022D000F6CFF801808189830E5F1F4FE4CF28017C
:1022E000F2E04F0E511CF801C080D180692D70E0E2
:1022F00036FC02C06FEF7FEFC6010E94D4144C0180
:102300008201D5CFB70180E290E00E94DF142A94C9
:102310002814190409F0B0F7CECFF60137FC8591E7
:1023200037FE81916F01B70190E00E94DF145110D8
:102330005A94F1E08F1A9108BFCF843619F089368C
:1023400009F077C0F80137FE6BC06081718182812E
:1023500093810C5F1F4FF32DFF763F2E97FF09C02F
:1023600090958095709561957F4F8F4F9F4F6894A2
:1023700037F82AE030E0A5010E940F15C82ECA18D0
:102380008C2C432C36FE0CC0E89440F8C91440F461
:1023900034FE05C032FC03C0F32DFE7E4F2E892C87
:1023A00044FE95C0FE01EC0DF11D8081803309F0E3
:1023B00087C0242D297E422E842D8870582E43FC00
:1023C00095C040FE8FC09C2C821418F42C0C922CCB
:1023D000981844FE91C0B70180E390E00E94DF149A
:1023E00042FE09C088E790E041FE02C088E590E027
:1023F000B7010E94DF14C91408F48AC0CA94D12C12
:102400009FEFC91AD90ACA0CDB1CF60182916F0131
:10241000B70190E00E94DF14AC14BD04B1F74FCFB8
:1024200060817181072E000C880B990B0E5F1F4F86
:1024300092CFD32CE894D4F82AE030E0853739F1F4
:10244000232D297FD22E8F3601F148F48835A9F04B
:10245000F701868197812B96E2E10C9489158037EC
:1024600049F08837A9F7D4FE02C06894D2F820E179
:1024700030E00DC06894D4F8F6CF34FE03C0822F4C
:102480008660D82E20E132E002C028E030E0F8017A
:10249000D7FE0FC060817181828193810C5F1F4FD5
:1024A000A5010E940F15C82ECA183D2CE89437F8D4
:1024B00067CF6081718190E080E00E5F1F4FF0CFA9
:1024C00042FC02C0839478CF8394839475CF842D8B
:1024D000867809F471CFF6CFB70180E290E00E94D0
:1024E000DF1483948214C0F3512C73CF522C5818EC
:1024F000821408F46ECFF8CF842D867809F47BCF50
:102500008BE241FE80E247FC8DE2B70190E071CFA3
:10251000B70180E390E00E94DF149A946CCF8FEFB4
:102520009FEF99CFA9E0B0E0E8E9F2E10C947315D0
:102530006A01F22EB02E102FFBE3AF2EA01608F486
:102540001BE31F5F012F27E0AE014F5F5F4F0E942B
:10255000F113BC018981982F9970913009F43FC023
:102560009BE2E1FC04C09E2D9170E0FC3AC05E2D20
:102570005071E82FE87083FF46C084E0911101C0DC
:1025800083E0EF2DE81B8F1508F0E0E0D6018E2FD9
:1025900020E2552351F1992329F0D6019C93C601DD
:1025A00001966C0196012D5F3F4FE2FE24C08EE440
:1025B000D6018C9391E411969C93119712968C936B
:1025C000D9018E2F90E281111BC0E20FF32FF11D74
:1025D00010828EEF9FEF2996ECE00C948F159DE210
:1025E000C6CF90E2C4CF2D9381508111FCCFCE0E87
:1025F000D11CE0E0D0CF8EE6D6018C9391E6DBCF04
:102600009D938150E0CF482F447082FF3DC084E00D
:10261000911101C083E08F1510F4EF2DE81BD60156
:102620008E2F20E2552309F1992329F0D6019C939E
:10263000C60101966C0196012D5F3F4FE2FE1BC063
:1026400089E4D6018C938EE411968C93119786E4DD
:1026500012968C93D9018E2F90E2882309F4B5CF7E
:102660009D938150FACF2D9381508111FCCFCE0ED6
:10267000D11CE0E0D9CF89E6D6018C938EE6119685
:102680008C93119786E6E4CF9B0177FF02C030E080
:1026900020E0A1E0B0E0911102C0B0E0A0E0F901BB
:1026A0003196AE0FBF1F8B2C912CBB2009F461C05B
:1026B0005401EFEFAE1ABE0AAA0DBB1DFA161B0697
:1026C00019F014F04F2D4A1B511188C0E3FC59C07A
:1026D0007601A42FB0E2A1114FC0C40ED11C9923E2
:1026E00009F45BC040E0D6011196F60190836D01BC
:1026F000552309F448C0012F060F9A81582F5071B5
:1027000084FF03C0913309F4015010160CF047C048
:10271000093008F008E0EEE2FE2E5B01A01AB108D5
:1027200085019194819491082F3F320729F4D601B5
:10273000FC92F60131966F016217730794F102174C
:1027400013077CF5DB01A21BB30BAA24A394B12CC5
:10275000AC0EBD1EAA0DBB1D11968C9121503109E6
:10276000D601119628153905F4F0F60180836D0124
:10277000DBCFB12CA12CA0CFF701B1937F01A150E9
:10278000AACF9111B0CFD601942F50E302C05D9330
:1027900091509111FCCFC40ED11C40E0ACCF01E0B0
:1027A000BACF80E3DBCF6217730731F4963388F436
:1027B000953311F4552369F0F6018083FD01842FD0
:1027C00090E2811108C0A40FB11D1C9290E080E03E
:1027D00002CF81E3F1CF91938150F3CF911183CF59
:1027E0008ACF283008F027E03327DA01990F311D0E
:1027F00087FD916000966105710539F432602E5FA6
:102800003D9330E32A95E1F708959F3F30F08038FB
:102810007105610509F03C5F3C5F3D93913008F024
:102820008068911DDF93CF931F930F93FF92EF92D8
:10283000192F987F9695E92F96959695E90FFF2782
:10284000EA52FF4F99273327EE24FF24A701E7011F
:1028500005900894079428F4360FE71EF81E491FC8
:10286000511D660F771F881F991F0694A1F70590C9
:10287000079428F4E70EF81E491F561FC11D770F55
:10288000881F991F661F0694A1F70590079428F4E6
:10289000F80E491F561FC71FD11D880F991F661FAD
:1028A000771F0694A1F70590079420F4490F561F4F
:1028B000C71FD81F990F661F771F881F0694A9F797
:1028C00084911095177041F0D695C7955795479507
:1028D000F794E7941A95C1F7ECE7F0E06894159047
:1028E000159135916591959105907FE27395E11869
:1028F000F10A430B560BC90BD009C0F7E10CF11ECE
:10290000431F561FC91FD01D7EF4703311F48A95E2
:10291000E6CFE894015030F0080F0AF400270217C0
:1029200008F4202F2395022F7A3328F079E37D9342
:102930002A95E9F710C07D932A9589F60694979514
:102940006795379517951794E118F10A430B560BC5
:10295000C90BD00998F023957E9173957A3308F0CE
:1029600070E37C932013B8F77E9170617D9330F013
:10297000839571E37D9370E32A95E1F71124EF903D
:10298000FF900F911F91CF91DF91992787FD90952F
:102990000895FC010590615070400110D8F78095B2
:1029A00090958E0F9F1F0895FC016150704001901B
:1029B0000110D8F7809590958E0F9F1F08950F9363
:1029C0001F93CF93DF93182F092FEB018B8181FD8C
:1029D00009C01FEF0FEF812F902FDF91CF911F9133
:1029E0000F91089582FF14C02E813F818C819D81BB
:1029F000281739073CF4E881F981CF0101969983C2
:102A0000888310838E819F8101969F838E83E3CF7D
:102A1000E885F985812F0995892BA1F3DACFFA0191
:102A2000AA27283051F1203181F1E8946F936E7F0D
:102A30006E5F7F4F8F4F9F4FAF4FB1E03ED0B4E0FE
:102A40003CD0670F781F891F9A1FA11D680F791F3F
:102A50008A1F911DA11D6A0F711D811D911DA11D50
:102A600020D009F468943F912AE0269F1124301960
:102A7000305D3193DEF6CF010895462F4770405DFB
:102A80004193B3E00FD0C9F7F6CF462F4F70405DAA
:102A90004A3318F0495D31FD4052419302D0A9F705
:102AA000EACFB4E0A6959795879577956795BA95FF
:102AB000C9F700976105710508959B01AC010A2EC5
:102AC00006945795479537952795BA95C9F7620F9C
:102AD000731F841F951FA01D08952F923F924F9240
:102AE0005F926F927F928F929F92AF92BF92CF929E
:102AF000DF92EF92FF920F931F93CF93DF93CDB7A7
:102B0000DEB7CA1BDB0B0FB6F894DEBF0FBECDBF1E
:102B100009942A88398848885F846E847D848C84EF
:102B20009B84AA84B984C884DF80EE80FD800C81F8
:102B30001B81AA81B981CE0FD11D0FB6F894DEBFDB
:0C2B40000FBECDBFED010895F894FFCF4B
:102B4C0000007001200025660000FC60DAF266B619
:102B5C00BEE0FEE6444E4752004F4B004154544EEB
:102B6C00002575002569002563006D002564004D66
:102B7C00616E6F65757672652000436F6D62696E6C
:102B8C006169736F6E006E6F6E206576616C756532
:102B9C00650030313233343536373839616263642D
:042BAC00656600005A
:00000001FF
